{"abi":[{"type":"constructor","inputs":[{"name":"_poolManager","type":"address","internalType":"contract IPoolManager"},{"name":"_oracle","type":"address","internalType":"address"},{"name":"_teeSigner","type":"address","internalType":"address"}],"stateMutability":"nonpayable"},{"type":"function","name":"MAX_DELAY","inputs":[],"outputs":[{"name":"","type":"uint256","internalType":"uint256"}],"stateMutability":"view"},{"type":"function","name":"MIN_DELAY","inputs":[],"outputs":[{"name":"","type":"uint256","internalType":"uint256"}],"stateMutability":"view"},{"type":"function","name":"afterAddLiquidity","inputs":[{"name":"","type":"address","internalType":"address"},{"name":"","type":"tuple","internalType":"struct PoolKey","components":[{"name":"currency0","type":"address","internalType":"Currency"},{"name":"currency1","type":"address","internalType":"Currency"},{"name":"fee","type":"uint24","internalType":"uint24"},{"name":"tickSpacing","type":"int24","internalType":"int24"},{"name":"hooks","type":"address","internalType":"contract IHooks"}]},{"name":"","type":"tuple","internalType":"struct IPoolManager.ModifyLiquidityParams","components":[{"name":"tickLower","type":"int24","internalType":"int24"},{"name":"tickUpper","type":"int24","internalType":"int24"},{"name":"liquidityDelta","type":"int256","internalType":"int256"},{"name":"salt","type":"bytes32","internalType":"bytes32"}]},{"name":"","type":"int256","internalType":"BalanceDelta"},{"name":"","type":"int256","internalType":"BalanceDelta"},{"name":"","type":"bytes","internalType":"bytes"}],"outputs":[{"name":"","type":"bytes4","internalType":"bytes4"},{"name":"","type":"int256","internalType":"BalanceDelta"}],"stateMutability":"pure"},{"type":"function","name":"afterDonate","inputs":[{"name":"","type":"address","internalType":"address"},{"name":"","type":"tuple","internalType":"struct PoolKey","components":[{"name":"currency0","type":"address","internalType":"Currency"},{"name":"currency1","type":"address","internalType":"Currency"},{"name":"fee","type":"uint24","internalType":"uint24"},{"name":"tickSpacing","type":"int24","internalType":"int24"},{"name":"hooks","type":"address","internalType":"contract IHooks"}]},{"name":"","type":"uint256","internalType":"uint256"},{"name":"","type":"uint256","internalType":"uint256"},{"name":"","type":"bytes","internalType":"bytes"}],"outputs":[{"name":"","type":"bytes4","internalType":"bytes4"}],"stateMutability":"pure"},{"type":"function","name":"afterInitialize","inputs":[{"name":"","type":"address","internalType":"address"},{"name":"key","type":"tuple","internalType":"struct PoolKey","components":[{"name":"currency0","type":"address","internalType":"Currency"},{"name":"currency1","type":"address","internalType":"Currency"},{"name":"fee","type":"uint24","internalType":"uint24"},{"name":"tickSpacing","type":"int24","internalType":"int24"},{"name":"hooks","type":"address","internalType":"contract IHooks"}]},{"name":"","type":"uint160","internalType":"uint160"},{"name":"","type":"int24","internalType":"int24"}],"outputs":[{"name":"","type":"bytes4","internalType":"bytes4"}],"stateMutability":"nonpayable"},{"type":"function","name":"afterRemoveLiquidity","inputs":[{"name":"","type":"address","internalType":"address"},{"name":"","type":"tuple","internalType":"struct PoolKey","components":[{"name":"currency0","type":"address","internalType":"Currency"},{"name":"currency1","type":"address","internalType":"Currency"},{"name":"fee","type":"uint24","internalType":"uint24"},{"name":"tickSpacing","type":"int24","internalType":"int24"},{"name":"hooks","type":"address","internalType":"contract IHooks"}]},{"name":"","type":"tuple","internalType":"struct IPoolManager.ModifyLiquidityParams","components":[{"name":"tickLower","type":"int24","internalType":"int24"},{"name":"tickUpper","type":"int24","internalType":"int24"},{"name":"liquidityDelta","type":"int256","internalType":"int256"},{"name":"salt","type":"bytes32","internalType":"bytes32"}]},{"name":"","type":"int256","internalType":"BalanceDelta"},{"name":"","type":"int256","internalType":"BalanceDelta"},{"name":"","type":"bytes","internalType":"bytes"}],"outputs":[{"name":"","type":"bytes4","internalType":"bytes4"},{"name":"","type":"int256","internalType":"BalanceDelta"}],"stateMutability":"pure"},{"type":"function","name":"afterSwap","inputs":[{"name":"","type":"address","internalType":"address"},{"name":"","type":"tuple","internalType":"struct PoolKey","components":[{"name":"currency0","type":"address","internalType":"Currency"},{"name":"currency1","type":"address","internalType":"Currency"},{"name":"fee","type":"uint24","internalType":"uint24"},{"name":"tickSpacing","type":"int24","internalType":"int24"},{"name":"hooks","type":"address","internalType":"contract IHooks"}]},{"name":"","type":"tuple","internalType":"struct IPoolManager.SwapParams","components":[{"name":"zeroForOne","type":"bool","internalType":"bool"},{"name":"amountSpecified","type":"int256","internalType":"int256"},{"name":"sqrtPriceLimitX96","type":"uint160","internalType":"uint160"}]},{"name":"","type":"int256","internalType":"BalanceDelta"},{"name":"","type":"bytes","internalType":"bytes"}],"outputs":[{"name":"","type":"bytes4","internalType":"bytes4"},{"name":"","type":"int128","internalType":"int128"}],"stateMutability":"pure"},{"type":"function","name":"beforeAddLiquidity","inputs":[{"name":"","type":"address","internalType":"address"},{"name":"","type":"tuple","internalType":"struct PoolKey","components":[{"name":"currency0","type":"address","internalType":"Currency"},{"name":"currency1","type":"address","internalType":"Currency"},{"name":"fee","type":"uint24","internalType":"uint24"},{"name":"tickSpacing","type":"int24","internalType":"int24"},{"name":"hooks","type":"address","internalType":"contract IHooks"}]},{"name":"","type":"tuple","internalType":"struct IPoolManager.ModifyLiquidityParams","components":[{"name":"tickLower","type":"int24","internalType":"int24"},{"name":"tickUpper","type":"int24","internalType":"int24"},{"name":"liquidityDelta","type":"int256","internalType":"int256"},{"name":"salt","type":"bytes32","internalType":"bytes32"}]},{"name":"","type":"bytes","internalType":"bytes"}],"outputs":[{"name":"","type":"bytes4","internalType":"bytes4"}],"stateMutability":"pure"},{"type":"function","name":"beforeDonate","inputs":[{"name":"","type":"address","internalType":"address"},{"name":"","type":"tuple","internalType":"struct PoolKey","components":[{"name":"currency0","type":"address","internalType":"Currency"},{"name":"currency1","type":"address","internalType":"Currency"},{"name":"fee","type":"uint24","internalType":"uint24"},{"name":"tickSpacing","type":"int24","internalType":"int24"},{"name":"hooks","type":"address","internalType":"contract IHooks"}]},{"name":"","type":"uint256","internalType":"uint256"},{"name":"","type":"uint256","internalType":"uint256"},{"name":"","type":"bytes","internalType":"bytes"}],"outputs":[{"name":"","type":"bytes4","internalType":"bytes4"}],"stateMutability":"pure"},{"type":"function","name":"beforeInitialize","inputs":[{"name":"","type":"address","internalType":"address"},{"name":"","type":"tuple","internalType":"struct PoolKey","components":[{"name":"currency0","type":"address","internalType":"Currency"},{"name":"currency1","type":"address","internalType":"Currency"},{"name":"fee","type":"uint24","internalType":"uint24"},{"name":"tickSpacing","type":"int24","internalType":"int24"},{"name":"hooks","type":"address","internalType":"contract IHooks"}]},{"name":"","type":"uint160","internalType":"uint160"}],"outputs":[{"name":"","type":"bytes4","internalType":"bytes4"}],"stateMutability":"pure"},{"type":"function","name":"beforeRemoveLiquidity","inputs":[{"name":"","type":"address","internalType":"address"},{"name":"","type":"tuple","internalType":"struct PoolKey","components":[{"name":"currency0","type":"address","internalType":"Currency"},{"name":"currency1","type":"address","internalType":"Currency"},{"name":"fee","type":"uint24","internalType":"uint24"},{"name":"tickSpacing","type":"int24","internalType":"int24"},{"name":"hooks","type":"address","internalType":"contract IHooks"}]},{"name":"","type":"tuple","internalType":"struct IPoolManager.ModifyLiquidityParams","components":[{"name":"tickLower","type":"int24","internalType":"int24"},{"name":"tickUpper","type":"int24","internalType":"int24"},{"name":"liquidityDelta","type":"int256","internalType":"int256"},{"name":"salt","type":"bytes32","internalType":"bytes32"}]},{"name":"","type":"bytes","internalType":"bytes"}],"outputs":[{"name":"","type":"bytes4","internalType":"bytes4"}],"stateMutability":"pure"},{"type":"function","name":"beforeSwap","inputs":[{"name":"","type":"address","internalType":"address"},{"name":"","type":"tuple","internalType":"struct PoolKey","components":[{"name":"currency0","type":"address","internalType":"Currency"},{"name":"currency1","type":"address","internalType":"Currency"},{"name":"fee","type":"uint24","internalType":"uint24"},{"name":"tickSpacing","type":"int24","internalType":"int24"},{"name":"hooks","type":"address","internalType":"contract IHooks"}]},{"name":"","type":"tuple","internalType":"struct IPoolManager.SwapParams","components":[{"name":"zeroForOne","type":"bool","internalType":"bool"},{"name":"amountSpecified","type":"int256","internalType":"int256"},{"name":"sqrtPriceLimitX96","type":"uint160","internalType":"uint160"}]},{"name":"","type":"bytes","internalType":"bytes"}],"outputs":[{"name":"","type":"bytes4","internalType":"bytes4"},{"name":"","type":"int256","internalType":"BeforeSwapDelta"},{"name":"","type":"uint24","internalType":"uint24"}],"stateMutability":"pure"},{"type":"function","name":"cancelIntent","inputs":[{"name":"intentId","type":"bytes32","internalType":"bytes32"}],"outputs":[],"stateMutability":"nonpayable"},{"type":"function","name":"executeRelease","inputs":[{"name":"releaseId","type":"bytes32","internalType":"bytes32"}],"outputs":[],"stateMutability":"nonpayable"},{"type":"function","name":"getIntent","inputs":[{"name":"intentId","type":"bytes32","internalType":"bytes32"}],"outputs":[{"name":"","type":"tuple","internalType":"struct MoleSwapHook.Intent","components":[{"name":"sender","type":"address","internalType":"address"},{"name":"tokenIn","type":"address","internalType":"address"},{"name":"tokenOut","type":"address","internalType":"address"},{"name":"amountIn","type":"uint256","internalType":"uint256"},{"name":"viewingPubKey","type":"bytes","internalType":"bytes"},{"name":"deadline","type":"uint256","internalType":"uint256"},{"name":"submittedAt","type":"uint256","internalType":"uint256"},{"name":"settled","type":"bool","internalType":"bool"}]}],"stateMutability":"view"},{"type":"function","name":"getPendingIntents","inputs":[],"outputs":[{"name":"","type":"bytes32[]","internalType":"bytes32[]"}],"stateMutability":"view"},{"type":"function","name":"getPendingReleases","inputs":[],"outputs":[{"name":"","type":"bytes32[]","internalType":"bytes32[]"}],"stateMutability":"view"},{"type":"function","name":"getRelease","inputs":[{"name":"releaseId","type":"bytes32","internalType":"bytes32"}],"outputs":[{"name":"","type":"tuple","internalType":"struct MoleSwapHook.PendingRelease","components":[{"name":"token","type":"address","internalType":"address"},{"name":"stealthAddress","type":"address","internalType":"address"},{"name":"amount","type":"uint256","internalType":"uint256"},{"name":"releaseTime","type":"uint256","internalType":"uint256"},{"name":"encryptedStealthKey","type":"bytes","internalType":"bytes"},{"name":"intentId","type":"bytes32","internalType":"bytes32"},{"name":"executed","type":"bool","internalType":"bool"}]}],"stateMutability":"view"},{"type":"function","name":"getReleasesReadyToExecute","inputs":[],"outputs":[{"name":"","type":"bytes32[]","internalType":"bytes32[]"}],"stateMutability":"view"},{"type":"function","name":"intentNonce","inputs":[],"outputs":[{"name":"","type":"uint256","internalType":"uint256"}],"stateMutability":"view"},{"type":"function","name":"intents","inputs":[{"name":"","type":"bytes32","internalType":"bytes32"}],"outputs":[{"name":"sender","type":"address","internalType":"address"},{"name":"tokenIn","type":"address","internalType":"address"},{"name":"tokenOut","type":"address","internalType":"address"},{"name":"amountIn","type":"uint256","internalType":"uint256"},{"name":"viewingPubKey","type":"bytes","internalType":"bytes"},{"name":"deadline","type":"uint256","internalType":"uint256"},{"name":"submittedAt","type":"uint256","internalType":"uint256"},{"name":"settled","type":"bool","internalType":"bool"}],"stateMutability":"view"},{"type":"function","name":"oracle","inputs":[],"outputs":[{"name":"","type":"address","internalType":"address"}],"stateMutability":"view"},{"type":"function","name":"owner","inputs":[],"outputs":[{"name":"","type":"address","internalType":"address"}],"stateMutability":"view"},{"type":"function","name":"pendingIntentCount","inputs":[],"outputs":[{"name":"","type":"uint256","internalType":"uint256"}],"stateMutability":"view"},{"type":"function","name":"pendingIntentIds","inputs":[{"name":"","type":"uint256","internalType":"uint256"}],"outputs":[{"name":"","type":"bytes32","internalType":"bytes32"}],"stateMutability":"view"},{"type":"function","name":"pendingReleaseCount","inputs":[],"outputs":[{"name":"","type":"uint256","internalType":"uint256"}],"stateMutability":"view"},{"type":"function","name":"pendingReleaseIds","inputs":[{"name":"","type":"uint256","internalType":"uint256"}],"outputs":[{"name":"","type":"bytes32","internalType":"bytes32"}],"stateMutability":"view"},{"type":"function","name":"poolInitialized","inputs":[],"outputs":[{"name":"","type":"bool","internalType":"bool"}],"stateMutability":"view"},{"type":"function","name":"poolKey","inputs":[],"outputs":[{"name":"currency0","type":"address","internalType":"Currency"},{"name":"currency1","type":"address","internalType":"Currency"},{"name":"fee","type":"uint24","internalType":"uint24"},{"name":"tickSpacing","type":"int24","internalType":"int24"},{"name":"hooks","type":"address","internalType":"contract IHooks"}],"stateMutability":"view"},{"type":"function","name":"poolManager","inputs":[],"outputs":[{"name":"","type":"address","internalType":"contract IPoolManager"}],"stateMutability":"view"},{"type":"function","name":"processedBatches","inputs":[{"name":"","type":"bytes32","internalType":"bytes32"}],"outputs":[{"name":"","type":"bool","internalType":"bool"}],"stateMutability":"view"},{"type":"function","name":"releases","inputs":[{"name":"","type":"bytes32","internalType":"bytes32"}],"outputs":[{"name":"token","type":"address","internalType":"address"},{"name":"stealthAddress","type":"address","internalType":"address"},{"name":"amount","type":"uint256","internalType":"uint256"},{"name":"releaseTime","type":"uint256","internalType":"uint256"},{"name":"encryptedStealthKey","type":"bytes","internalType":"bytes"},{"name":"intentId","type":"bytes32","internalType":"bytes32"},{"name":"executed","type":"bool","internalType":"bool"}],"stateMutability":"view"},{"type":"function","name":"setOracle","inputs":[{"name":"_oracle","type":"address","internalType":"address"}],"outputs":[],"stateMutability":"nonpayable"},{"type":"function","name":"setTeeSigner","inputs":[{"name":"_teeSigner","type":"address","internalType":"address"}],"outputs":[],"stateMutability":"nonpayable"},{"type":"function","name":"settleAndQueue","inputs":[{"name":"batch","type":"tuple","internalType":"struct MoleSwapHook.SettlementBatch","components":[{"name":"internalMatches","type":"tuple[]","internalType":"struct MoleSwapHook.InternalMatch[]","components":[{"name":"buyIntentId","type":"bytes32","internalType":"bytes32"},{"name":"sellIntentId","type":"bytes32","internalType":"bytes32"},{"name":"matchedAmount","type":"uint256","internalType":"uint256"}]},{"name":"ammSettlements","type":"tuple[]","internalType":"struct MoleSwapHook.Settlement[]","components":[{"name":"intentId","type":"bytes32","internalType":"bytes32"},{"name":"stealthAddress","type":"address","internalType":"address"},{"name":"amountOut","type":"uint256","internalType":"uint256"},{"name":"zeroForOne","type":"bool","internalType":"bool"}]},{"name":"releases","type":"tuple[]","internalType":"struct MoleSwapHook.PendingRelease[]","components":[{"name":"token","type":"address","internalType":"address"},{"name":"stealthAddress","type":"address","internalType":"address"},{"name":"amount","type":"uint256","internalType":"uint256"},{"name":"releaseTime","type":"uint256","internalType":"uint256"},{"name":"encryptedStealthKey","type":"bytes","internalType":"bytes"},{"name":"intentId","type":"bytes32","internalType":"bytes32"},{"name":"executed","type":"bool","internalType":"bool"}]},{"name":"batchId","type":"bytes32","internalType":"bytes32"},{"name":"timestamp","type":"uint256","internalType":"uint256"},{"name":"teeSignature","type":"bytes","internalType":"bytes"}]}],"outputs":[],"stateMutability":"nonpayable"},{"type":"function","name":"submitIntent","inputs":[{"name":"tokenIn","type":"address","internalType":"address"},{"name":"tokenOut","type":"address","internalType":"address"},{"name":"amountIn","type":"uint256","internalType":"uint256"},{"name":"viewingPubKey","type":"bytes","internalType":"bytes"},{"name":"deadline","type":"uint256","internalType":"uint256"}],"outputs":[{"name":"intentId","type":"bytes32","internalType":"bytes32"}],"stateMutability":"nonpayable"},{"type":"function","name":"swappedAmounts","inputs":[{"name":"","type":"bytes32","internalType":"bytes32"}],"outputs":[{"name":"","type":"uint256","internalType":"uint256"}],"stateMutability":"view"},{"type":"function","name":"teeSigner","inputs":[],"outputs":[{"name":"","type":"address","internalType":"address"}],"stateMutability":"view"},{"type":"function","name":"transferOwnership","inputs":[{"name":"newOwner","type":"address","internalType":"address"}],"outputs":[],"stateMutability":"nonpayable"},{"type":"function","name":"unlockCallback","inputs":[{"name":"data","type":"bytes","internalType":"bytes"}],"outputs":[{"name":"","type":"bytes","internalType":"bytes"}],"stateMutability":"nonpayable"},{"type":"event","name":"BatchSettled","inputs":[{"name":"batchId","type":"bytes32","indexed":true,"internalType":"bytes32"},{"name":"internalMatches","type":"uint256","indexed":false,"internalType":"uint256"},{"name":"ammSwaps","type":"uint256","indexed":false,"internalType":"uint256"},{"name":"releasesQueued","type":"uint256","indexed":false,"internalType":"uint256"}],"anonymous":false},{"type":"event","name":"IntentCancelled","inputs":[{"name":"intentId","type":"bytes32","indexed":true,"internalType":"bytes32"},{"name":"sender","type":"address","indexed":true,"internalType":"address"}],"anonymous":false},{"type":"event","name":"IntentSubmitted","inputs":[{"name":"intentId","type":"bytes32","indexed":true,"internalType":"bytes32"},{"name":"sender","type":"address","indexed":true,"internalType":"address"},{"name":"tokenIn","type":"address","indexed":false,"internalType":"address"},{"name":"tokenOut","type":"address","indexed":false,"internalType":"address"},{"name":"amountIn","type":"uint256","indexed":false,"internalType":"uint256"},{"name":"deadline","type":"uint256","indexed":false,"internalType":"uint256"}],"anonymous":false},{"type":"event","name":"ReleaseExecuted","inputs":[{"name":"releaseId","type":"bytes32","indexed":true,"internalType":"bytes32"},{"name":"stealthAddress","type":"address","indexed":true,"internalType":"address"},{"name":"token","type":"address","indexed":false,"internalType":"address"},{"name":"amount","type":"uint256","indexed":false,"internalType":"uint256"},{"name":"encryptedStealthKey","type":"bytes","indexed":false,"internalType":"bytes"}],"anonymous":false},{"type":"event","name":"ReleaseQueued","inputs":[{"name":"releaseId","type":"bytes32","indexed":true,"internalType":"bytes32"},{"name":"intentId","type":"bytes32","indexed":true,"internalType":"bytes32"},{"name":"stealthAddress","type":"address","indexed":false,"internalType":"address"},{"name":"amount","type":"uint256","indexed":false,"internalType":"uint256"},{"name":"releaseTime","type":"uint256","indexed":false,"internalType":"uint256"}],"anonymous":false},{"type":"event","name":"StealthKeyPublished","inputs":[{"name":"intentId","type":"bytes32","indexed":true,"internalType":"bytes32"},{"name":"user","type":"address","indexed":true,"internalType":"address"},{"name":"stealthAddress","type":"address","indexed":false,"internalType":"address"},{"name":"encryptedKey","type":"bytes","indexed":false,"internalType":"bytes"}],"anonymous":false},{"type":"event","name":"SwapExecuted","inputs":[{"name":"intentId","type":"bytes32","indexed":true,"internalType":"bytes32"},{"name":"amountIn","type":"uint256","indexed":false,"internalType":"uint256"},{"name":"amountOut","type":"uint256","indexed":false,"internalType":"uint256"},{"name":"zeroForOne","type":"bool","indexed":false,"internalType":"bool"}],"anonymous":false},{"type":"error","name":"BatchAlreadyProcessed","inputs":[]},{"type":"error","name":"ECDSAInvalidSignature","inputs":[]},{"type":"error","name":"ECDSAInvalidSignatureLength","inputs":[{"name":"length","type":"uint256","internalType":"uint256"}]},{"type":"error","name":"ECDSAInvalidSignatureS","inputs":[{"name":"s","type":"bytes32","internalType":"bytes32"}]},{"type":"error","name":"InsufficientOutput","inputs":[]},{"type":"error","name":"IntentAlreadySettled","inputs":[]},{"type":"error","name":"IntentExpired","inputs":[]},{"type":"error","name":"IntentNotFound","inputs":[]},{"type":"error","name":"InvalidReleaseTime","inputs":[]},{"type":"error","name":"InvalidSignature","inputs":[]},{"type":"error","name":"OnlyOracle","inputs":[]},{"type":"error","name":"OnlyOwner","inputs":[]},{"type":"error","name":"OnlyPoolManager","inputs":[]},{"type":"error","name":"PoolNotInitialized","inputs":[]},{"type":"error","name":"ReleaseAlreadyExecuted","inputs":[]},{"type":"error","name":"ReleaseNotReady","inputs":[]},{"type":"error","name":"SafeERC20FailedOperation","inputs":[{"name":"token","type":"address","internalType":"address"}]}],"bytecode":{"object":"0x60a0346100d657601f61336a38819003918201601f19168301916001600160401b038311848410176100da578084926060946040528339810103126100d6578051906001600160a01b03821682036100d6576100696040610062602084016100ee565b92016100ee565b6080929092525f80546001600160a01b03199081166001600160a01b0393841617909155600180548216929093169190911790915560028054909116321790556040516132679081610103823960805181818161040e015281816109d10152818161129901526119da0152f35b5f80fd5b634e487b7160e01b5f52604160045260245ffd5b51906001600160a01b03821682036100d65756fe6080806040526004361015610012575f80fd5b5f905f3560e01c9081630f8d2b6b146124be57508063182148ef1461245c57806321d0ee701461241f578063248190c4146123d6578063259982e5146123995780632e03d63f146116e757806331341c66146116bd5780634125ff90146116a257806343f855c31461167c5780634f294e3e14611653578063575e24b4146115c757806369e7f655146114a55780636c2bbe7e146114615780636c688863146113ed5780636fe7e6eb146112535780637adbf973146111fd5780637dc0d1d0146111d85780637f698e92146110b657806383eeb3731461109957806388fcda391461106a5780638da5cb5b146110445780639021578a14610f8557806391dd7346146109955780639f063efc1461094f5780639f81aed714610933578063a7fff50f14610915578063ab80a15e146108db578063b47b2fb114610850578063b6a8b0fa14610811578063b98ad255146107ee578063c38c65a7146107d0578063c799147b1461054b578063d55f960d146104b3578063dbc63ff014610432578063dc4c90d3146103ee578063dc98354e14610394578063e1b4af6914610355578063f13c46aa146102db578063f2fde38b146102825763f491a84c146101d6575f80fd5b3461027f57602036600319011261027f5760409060043581526008602052206001600160a01b038154166001600160a01b0360018301541691600281015461026e600383015460405190610238826102318160048901612af5565b0383612bcb565b60ff600660058701549601541693604051978897885260208801526040870152606086015260e0608086015260e0850190612a99565b9160a0840152151560c08301520390f35b80fd5b503461027f57602036600319011261027f5761029c6128df565b600254906001600160a01b03821633036102cc576001600160a01b036001600160a01b0319911691161760025580f35b600483635fc483c560e01b8152fd5b503461027f57602036600319011261027f5761033d6040826103519360e0835161030481612b76565b8281528260208201528285820152826060820152606060808201528260a08201528260c082015201526004358152600760205220612e89565b604051918291602083526020830190612c45565b0390f35b503461027f5761036436612bed565b50505050505060206040517fe1b4af69000000000000000000000000000000000000000000000000000000008152f35b503461027f5760e036600319011261027f576103ae6128df565b5060a036602319011261027f576103c3612a83565b5060206040517fdc98354e000000000000000000000000000000000000000000000000000000008152f35b503461027f578060031936011261027f5760206040516001600160a01b037f0000000000000000000000000000000000000000000000000000000000000000168152f35b503461027f578060031936011261027f5760405180916020600b54928381520191600b82527f0175b7a638427703f0dbe7bb9bbf987a2551717b34e79f33b5b1008d1fa01db9915b81811061049d576103518561049181870382612bcb565b604051918291826129e0565b825484526020909301926001928301920161047a565b503461027f57602036600319011261027f576004358082526007602052604082206001600160a01b03815416330361053c57600701805460ff811661052d5760ff1916600117905561050481612fa0565b33907fac5a4b90e421002a2fdb9f132b9b32c24fa4ae16ec480516c85932de208d2a338380a380f35b6004846353857a9d60e01b8152fd5b6004836361ae648360e01b8152fd5b503461027f57602036600319011261027f5760043580825260086020526040822090600182016001600160a01b03815416156107c15760068301805460ff811661079957600385015442106107715760ff19166001179055600c5492845b848110610691575b8584847f03d48ca3783319ecf6c1e1e22de7e763ae21b106030e31422211d34805fa94056005866001600160a01b0380825416946105fa82825416966002850197885491612f12565b541680957f38b334083ffeb5ad6ed3b2a51f60ad408b04dbe992d180aa670a8b073584074d6001600160a01b03845416965496600485019760405191825260208201526060604082015280610652606082018a612af5565b0390a301549182855260076020526001600160a01b036040862054169361068b6040519283928352604060208401526040830190612af5565b0390a380f35b8361069b826129b3565b90549060031b1c146106af576001016105a9565b909192935f19810190811161075d576106da6106cd6106f0926129b3565b90549060031b1c926129b3565b819391549060031b91821b915f19901b19161790565b9055600c548015610749577f03d48ca3783319ecf6c1e1e22de7e763ae21b106030e31422211d34805fa9405916005915f190161072e81600c6129cb565b8154905f199060031b1b19169055600c5590849392506105b1565b602485634e487b7160e01b81526031600452fd5b602486634e487b7160e01b81526011600452fd5b6004867fe460d93d000000000000000000000000000000000000000000000000000000008152fd5b6004867f9d348591000000000000000000000000000000000000000000000000000000008152fd5b6004846361ae648360e01b8152fd5b503461027f578060031936011261027f576020600d54604051908152f35b503461027f578060031936011261027f57602060ff600654166040519015158152f35b503461027f5761082036612bed565b50505050505060206040517fb6a8b0fa000000000000000000000000000000000000000000000000000000008152f35b503461027f5761016036600319011261027f5761086b6128df565b5060a036602319011261027f5760603660c319011261027f576101443567ffffffffffffffff81116108d757906108a86040923690600401612909565b50508151907fb47b2fb10000000000000000000000000000000000000000000000000000000082526020820152f35b5080fd5b503461027f57602036600319011261027f5760043590600c5482101561027f576020610906836129b3565b90549060031b1c604051908152f35b503461027f578060031936011261027f576020600b54604051908152f35b503461027f578060031936011261027f576020604051603c8152f35b503461027f5760409061096136612a19565b505050505050508151907f9f063efc0000000000000000000000000000000000000000000000000000000082526020820152f35b5034610eb0576020366003190112610eb05760043567ffffffffffffffff8111610eb0576109c7903690600401612909565b6001600160a01b037f00000000000000000000000000000000000000000000000000000000000000001690813303610f5d57820191602081840312610eb05780359067ffffffffffffffff8211610eb0570160a081840312610eb05760405190610a3082612b93565b610a3a8482612e2e565b825260808101359067ffffffffffffffff8211610eb0570161010081850312610eb05760405190610a6a82612b76565b610a73816128f5565b8252610a81602082016128f5565b6020830152610a92604082016128f5565b6040830152606082019460608201358652608082013567ffffffffffffffff8111610eb05782019181601f84011215610eb057610ada60e092846020610af996359101612cea565b608085015260a081013560a085015260c081013560c085015201612e21565b60e0820152602082015260608151015115159251927f80000000000000000000000000000000000000000000000000000000000000008414610f495781516060015115610f2f576401000276a45b60405194606086019286841067ffffffffffffffff851117610f1b576001600160a01b0393604052865260208601905f038152826040870192168252604051957ff3cd914c00000000000000000000000000000000000000000000000000000000875283600354166004880152600454848116602489015262ffffff8160a01c16604489015260b81c60020b60648801528360055416608488015251151560a48701525160c4860152511660e48401526101206101048401525f610124840152602083610144815f865af1928315610ea5575f93610ee7575b508260801d9183600f0b606083510151151590815f14610ed5576001600160a01b0360035416905b8215610ec3576001600160a01b0360045416955b8315610ebc5780935b15610eb45750915b600f0b5f8112610d67575b50508581600f0b13610cb5575b6103518560405190602082015260208152610ca1604082612bcb565b604051918291602083526020830190612a99565b6fffffffffffffffffffffffffffffffff86911693823b156108d75760646001600160a01b03918360405195869485937f0b0d9c090000000000000000000000000000000000000000000000000000000085521660048401523060248401528860448401525af18015610d5c57610d43575b506103519360409151518152600a60205220555f808080610c85565b610d4e858092612bcb565b610d58575f610d27565b8380fd5b6040513d87823e3d90fd5b833b15610eb0576001600160a01b03604051927fa584119400000000000000000000000000000000000000000000000000000000845216918260048201525f8160248183895af18015610ea557610e90575b507fffffffffffffffffffffffffffffffff800000000000000000000000000000008114610e7c5790836fffffffffffffffffffffffffffffffff610e01938a031691612f12565b6040517f11da60b40000000000000000000000000000000000000000000000000000000081526020816004818a875af18015610e7157610e42575b80610c78565b602090813d8311610e6a575b610e588183612bcb565b81010312610e66575f610e3c565b8580fd5b503d610e4e565b6040513d89823e3d90fd5b602488634e487b7160e01b81526011600452fd5b610e9d9198505f90612bcb565b5f965f610db9565b6040513d5f823e3d90fd5b5f80fd5b905091610c6d565b8193610c65565b6001600160a01b036003541695610c5c565b6001600160a01b036004541690610c48565b9092506020813d602011610f13575b81610f0360209383612bcb565b81010312610eb05751915f610c20565b3d9150610ef6565b634e487b7160e01b5f52604160045260245ffd5b73fffd8963efd1fc6a506488495d951d5263988d25610b47565b634e487b7160e01b5f52601160045260245ffd5b7ff655705d000000000000000000000000000000000000000000000000000000005f5260045ffd5b34610eb0576020366003190112610eb0576004355f52600760205260405f206001600160a01b038154166001600160a01b03600183015416916001600160a01b0360028201541660038201549161102e604051610ff081610fe98160048701612af5565b0382612bcb565b60058301549460ff60076006860154950154169460405198899889526020890152604088015260608701526101006080870152610100860190612a99565b9260a085015260c0840152151560e08301520390f35b34610eb0575f366003190112610eb05760206001600160a01b0360025416604051908152f35b34610eb0576020366003190112610eb0576004355f526009602052602060ff60405f2054166040519015158152f35b34610eb0575f366003190112610eb0576020600c54604051908152f35b34610eb0576020366003190112610eb0575f60c06040516110d681612baf565b828152826020820152826040820152826060820152606060808201528260a082015201526004355f5260086020526001600160a01b0360405f206040519061111d82612baf565b82815416825282600182015416602083019081526111c560028301546040850190815260038401546060860190815260405191611168836111618160048a01612af5565b0384612bcb565b608087019283528760ff600660058901549860a08b01998a520154169560c089019615158752604051998a9960208b52511660208a0152511660408801525160608701525160808601525160e060a0860152610100850190612a99565b915160c084015251151560e08301520390f35b34610eb0575f366003190112610eb05760206001600160a01b035f5416604051908152f35b34610eb0576020366003190112610eb0576112166128df565b6001600160a01b03600254163303611244576001600160a01b03166001600160a01b03195f5416175f555f80f35b635fc483c560e01b5f5260045ffd5b34610eb057610100366003190112610eb05761126d6128df565b5060a0366023190112610eb057611282612a83565b5060e4358060020b03610eb0576001600160a01b037f0000000000000000000000000000000000000000000000000000000000000000163303610f5d576024356001600160a01b03811690818103610eb057506001600160a01b031960035416176003556044356001600160a01b03811690818103610eb057506001600160a01b0319600454161760045560643562ffffff81168103610eb0576004546084358060020b8103610eb05776ffffff00000000000000000000000000000000000000007fffffffffffff000000000000ffffffffffffffffffffffffffffffffffffffff9160b81b79ffffff0000000000000000000000000000000000000000000000169360a01b169116171760045560a4356001600160a01b038116809103610eb0576001600160a01b03196005541617600555600160ff19600654161760065560206040517f6fe7e6eb000000000000000000000000000000000000000000000000000000008152f35b34610eb0575f366003190112610eb057604051806020600c54918281520190600c5f527fdf6966c971051c3d54ec59162606531493a51404a002842f56009d7e5cf4a8c7905f5b81811061144b576103518561049181870382612bcb565b8254845260209093019260019283019201611434565b34610eb05761146f36612a19565b50505050505050604080517f6c2bbe7e0000000000000000000000000000000000000000000000000000000081525f6020820152f35b34610eb0575f366003190112610eb0575f80600c54905b81811061158457506114cd82612df5565b916114db6040519384612bcb565b8083526114ea601f1991612df5565b013660208401375f805b828110611509576040518061035186826129e0565b611512816129b3565b90549060031b1c5f526008602052600360405f200154421015611538575b6001016114f4565b90611542826129b3565b90549060031b1c9161155382612cc0565b92855183101561157057602060019360051b870101529050611530565b634e487b7160e01b5f52603260045260245ffd5b61158d816129b3565b90549060031b1c5f526008602052600360405f2001544210156115b3575b6001016114bc565b916115bf600191612cc0565b9290506115ab565b34610eb057610140366003190112610eb0576115e16128df565b5060a0366023190112610eb05760603660c3190112610eb0576101243567ffffffffffffffff8111610eb05761161b903690600401612909565b505060606040517f575e24b40000000000000000000000000000000000000000000000000000000081525f60208201525f6040820152f35b34610eb0576020366003190112610eb057600435600b54811015610eb05761090660209161299b565b34610eb0575f366003190112610eb05760206001600160a01b0360015416604051908152f35b34610eb0575f366003190112610eb057602060405160b48152f35b34610eb0576020366003190112610eb0576004355f52600a602052602060405f2054604051908152f35b34610eb0576020366003190112610eb05760043567ffffffffffffffff8111610eb0578060040160c06003198336030112610eb0576001600160a01b035f54163303612371576064820135805f52600960205260ff60405f2054166123495760ff60065416156123215761175b8280612d53565b93602481019461176b8686612d89565b9390604484019461177c8689612dbf565b90916040519460208601968060c0880160a08a525260e0870191905f5b8181106122f757505050858103601f1901604087015281815260200193905f5b8181106122a657505050601f198484030160608501528083526020830160208260051b85010193835f9160de1982360301905b8584106121ba57505050505050509181611826816118709589608061187999970152608486013560a083015203601f198101835282612bcb565b5190207f19457468657265756d205369676e6564204d6573736167653a0a3332000000005f52601c5261186a61186360a4603c5f20930188612d20565b3691612cea565b90613038565b90929192613072565b6001600160a01b038060015416911603612192575f828152600960205260408120805460ff191660011790555b6118b08480612d53565b90508110156119ca576118c38480612d53565b82101561157057606082020190813591825f52600760205260405f2090602081013590815f52600760205260405f20946001600160a01b038454169384156119bb576001600160a01b03875416156119bb57600781019660ff88541680156119ad575b61199e57600197611979611993956119596119989960406001600160a01b038e6007990154169301359283913091613131565b6001600160a01b038b8501541630906001600160a01b0386541690613131565b8860ff19825416179055018660ff19825416179055612fa0565b612fa0565b016118a6565b6353857a9d60e01b5f5260045ffd5b5060ff600782015416611926565b6361ae648360e01b5f5260045ffd5b509083835f936001600160a01b037f000000000000000000000000000000000000000000000000000000000000000016945b611a068484612d89565b9050811015611d9657611a198484612d89565b821015611570578160071b01908135805f52600760205260405f206001600160a01b038154169081156119bb57600781019060ff82541661199e5760058101544211611d6e5785816001600160a01b0360018e9401611a85828254169760038501988954913091613131565b5416855460405163095ea7b360e01b5f52856004528160245260205f60448180875af19060015f5114821615611d5f575b60405215611c88575b50505f926060611b528594611b44611af2611b8f96611aeb60405194611ae486612b93565b3690612e2e565b8452612e89565b6020830190815260405194859360208086015251805160408601526001600160a01b0360208201511682860152604081015160808601520151151560a08401525160a060c084015260e0830190612c45565b03601f198101835282612bcb565b6040519485809481937f48c89491000000000000000000000000000000000000000000000000000000008352602060048401526024830190612a99565b03925af18015610ea557611c11575b50805460ff19166001179055611bb382612fa0565b5492815f52600a602052606060405f205491013590811515809203610eb0576001947f6f7b522f4506ab1bd57cbfbf2b6677ca8ca6d3e164da3ce0b596dd07b2cb4df89260609260405192835260208301526040820152a2016119fc565b3d805f833e611c208183612bcb565b810190602081830312610eb05780519067ffffffffffffffff8211610eb0570181601f82011215610eb057805190611c5782612cce565b92611c656040519485612bcb565b82845260208383010111610eb057815f9260208093018386015e83010152611b9e565b919350915060405163095ea7b360e01b5f528d6004525f60245260205f60448180875af19060015f5114821615611d47575b60405215611d34576040519063095ea7b360e01b5f528d60045260245260205f60448180865af19060015f5114821615611d13575b60405215611d01578b91818892611abf565b635274afe760e01b5f5260045260245ffd5b906001811516611d2b57823b15153d15161690611cef565b503d5f823e3d90fd5b50635274afe760e01b5f5260045260245ffd5b906001811516611d2b57833b15153d15161690611cba565b90833b15153d15161690611ab6565b7f408b2234000000000000000000000000000000000000000000000000000000005f5260045ffd5b5090925f603c4201928342119560b4420193844211935b611db78484612dbf565b905081101561213457611dca8484612dbf565b8291921015611570578060051b82013560de1983360301811215610eb0578a9201606081013592610f495788831061210c5786610f495787831161210c5760a0810135906020810190611e1c82612e0d565b60405160208101918583526bffffffffffffffffffffffff199060601b16604082015286605482015260548152611e54607482612bcb565b51902091835f52600a60205260405f205415155f1461210157835f52600a60205260405f2054915b611e8581612e0d565b90611e9d611e9284612e0d565b916080810190612d20565b6001600160a01b0360405194611eb286612baf565b1684526001600160a01b036020850193168352611edf604085019287845260608601928c84523691612cea565b906080850191825260a08501928984526001600160a01b0360c08701955f87528a5f526008602052818060405f20995116166001600160a01b031989541617885551166001600160a01b036001880191166001600160a01b031982541617905551600286015551600385015560048401905180519067ffffffffffffffff8211610f1b57611f6d8354612abd565b601f81116120bc575b50602090601f8311600114612050579180611fc997969492600696945f92612045575b50508160011b915f199060031b1c19161790555b51600584015551151591019060ff801983541691151516179055565b600c549168010000000000000000831015610f1b576001966120246060938661201d6106da888d7f02bc1d755e3d7cf6777baf34172e67664dbfaa338158b31d17aadfd68d55d4a19a01600c55600c6129cb565b9055612e0d565b916001600160a01b036040519316835260208301526040820152a301611dad565b015190505f80611f99565b90601f19831691845f52815f20925f5b8181106120a4575092600192859260069896611fc99b9a98961061208c575b505050811b019055611fad565b01515f1960f88460031b161c191690555f808061207f565b92936020600181928786015181550195019301612060565b835f5260205f20601f840160051c810191602085106120f7575b601f0160051c01905b8181106120ec5750611f76565b5f81556001016120df565b90915081906120d6565b604082013591611e7c565b7f45106036000000000000000000000000000000000000000000000000000000005f5260045ffd5b507f2f81f9bac26b27e0cb3a4a74f0328065dbe88c74d6fc7fa0e4b071094dc73e136060888461217c8761217461216b8480612d53565b95905084612d89565b939050612dbf565b91905060405192835260208301526040820152a2005b7f8baa579f000000000000000000000000000000000000000000000000000000005f5260045ffd5b90919293949596601f19828203018652873583811215610eb05784016001600160a01b036121e7826128f5565b1682526001600160a01b036121fe602083016128f5565b16602083015260408101356040830152606081013560608301526080810135601e1982360301811215610eb05781019060208235920167ffffffffffffffff8311610eb0578236038113610eb057838361228760c06020969587966101009660e0608060019c01528160e0880152878701375f86858701015260a081013560a086015201612e21565b151560c0830152601f01601f19160101990197960194019291906117ec565b90919394608080600192873581526001600160a01b036122c860208a016128f5565b166020820152604088013560408201526122e460608901612e21565b15156060820152019695019291016117b9565b82358452602080840135908501526040808401359085015260609384019390920191600101611799565b7f486aa307000000000000000000000000000000000000000000000000000000005f5260045ffd5b7fe2b1f194000000000000000000000000000000000000000000000000000000005f5260045ffd5b7f80fee105000000000000000000000000000000000000000000000000000000005f5260045ffd5b34610eb0576123a736612937565b505050505060206040517f259982e5000000000000000000000000000000000000000000000000000000008152f35b34610eb0576020366003190112610eb0576123ef6128df565b6001600160a01b03600254163303611244576001600160a01b03166001600160a01b031960015416176001555f80f35b34610eb05761242d36612937565b505050505060206040517f21d0ee70000000000000000000000000000000000000000000000000000000008152f35b34610eb0575f366003190112610eb05760a06001600160a01b03600354166004546001600160a01b0360055416906040519283526001600160a01b038116602084015262ffffff81851c16604084015260b81c60020b60608301526080820152f35b34610eb05760a0366003190112610eb0576124d76128df565b602435906001600160a01b03821692838303610eb05760443560643567ffffffffffffffff8111610eb057612510903690600401612909565b94608435934285111561289d57508215612859576041860361281557600d5461253881612cc0565b600d556040519060208201923360601b84526001600160a01b038816976bffffffffffffffffffffffff199060601b1660348401526bffffffffffffffffffffffff199060601b16604883015284605c83015242607c830152609c820152609c81526125a560bc82612bcb565b51902094604051916125b683612b76565b33835260208301918683526125db60408501928a845260608601928784523691612cea565b6080850190815260a08501918783526001600160a01b0360c08701944286528160e08901975f89528d5f526007602052818060405f209b5116166001600160a01b03198b5416178a5551168260018a0191166001600160a01b031982541617905551166001600160a01b036002880191166001600160a01b031982541617905551600386015560048501905180519067ffffffffffffffff8211610f1b576126838354612abd565b601f81116127d0575b50602090601f831160011461276357918060079694926126e6999896945f92612758575b50508160011b915f199060031b1c19161790555b51600585015551600684015551151591019060ff801983541691151516179055565b600b549468010000000000000000861015610f1b57846127136106da88600160209a01600b55600b6129cb565b90556040519384528584015260408301526060820152817ff51c89620fff923b178bca9ee9cb870bc84b6cd6031c59de48ff65bdf00942f760803393a3604051908152f35b015190508e806126b0565b90601f19831691845f52815f20925f5b8181106127b857509260019285926126e69b9a989660079a9896106127a0575b505050811b0190556126c4565b01515f1960f88460031b161c191690558e8080612793565b92936020600181928786015181550195019301612773565b835f5260205f20601f840160051c8101916020851061280b575b601f0160051c01905b818110612800575061268c565b5f81556001016127f3565b90915081906127ea565b606460405162461bcd60e51b815260206004820152601a60248201527f496e76616c69642076696577696e67206b6579206c656e6774680000000000006044820152fd5b606460405162461bcd60e51b815260206004820152600b60248201527f5a65726f20616d6f756e740000000000000000000000000000000000000000006044820152fd5b8062461bcd60e51b6064925260206004820152600f60248201527f446561646c696e652070617373656400000000000000000000000000000000006044820152fd5b600435906001600160a01b0382168203610eb057565b35906001600160a01b0382168203610eb057565b9181601f84011215610eb05782359167ffffffffffffffff8311610eb05760208381860195010111610eb057565b90610160600319830112610eb0576004356001600160a01b0381168103610eb0579160a0602319820112610eb057602491608060c319830112610eb05760c491610144359067ffffffffffffffff8211610eb05761299791600401612909565b9091565b600b5481101561157057600b5f5260205f2001905f90565b600c5481101561157057600c5f5260205f2001905f90565b8054821015611570575f5260205f2001905f90565b60206040818301928281528451809452019201905f5b818110612a035750505090565b82518452602093840193909201916001016129f6565b906101a0600319830112610eb0576004356001600160a01b0381168103610eb0579160a0602319820112610eb057602491608060c319830112610eb05760c49161014435916101643591610184359067ffffffffffffffff8211610eb05761299791600401612909565b60c435906001600160a01b0382168203610eb057565b805180835260209291819084018484015e5f828201840152601f01601f1916010190565b90600182811c92168015612aeb575b6020831014612ad757565b634e487b7160e01b5f52602260045260245ffd5b91607f1691612acc565b5f9291815491612b0483612abd565b8083529260018116908115612b595750600114612b2057505050565b5f9081526020812093945091925b838310612b3f575060209250010190565b600181602092949394548385870101520191019190612b2e565b915050602093945060ff929192191683830152151560051b010190565b610100810190811067ffffffffffffffff821117610f1b57604052565b6040810190811067ffffffffffffffff821117610f1b57604052565b60e0810190811067ffffffffffffffff821117610f1b57604052565b90601f8019910116810190811067ffffffffffffffff821117610f1b57604052565b610120600319820112610eb0576004356001600160a01b0381168103610eb0579160a0602319830112610eb05760249160c4359160e43591610104359067ffffffffffffffff8211610eb05761299791600401612909565b906001600160a01b0382511681526001600160a01b0360208301511660208201526001600160a01b0360408301511660408201526060820151606082015260e080612ca160808501516101006080860152610100850190612a99565b9360a081015160a085015260c081015160c08501520151151591015290565b5f198114610f495760010190565b67ffffffffffffffff8111610f1b57601f01601f191660200190565b929192612cf682612cce565b91612d046040519384612bcb565b829481845281830111610eb0578281602093845f960137010152565b903590601e1981360301821215610eb0570180359067ffffffffffffffff8211610eb057602001918136038313610eb057565b903590601e1981360301821215610eb0570180359067ffffffffffffffff8211610eb057602001916060820236038313610eb057565b903590601e1981360301821215610eb0570180359067ffffffffffffffff8211610eb057602001918160071b36038313610eb057565b903590601e1981360301821215610eb0570180359067ffffffffffffffff8211610eb057602001918160051b36038313610eb057565b67ffffffffffffffff8111610f1b5760051b60200190565b356001600160a01b0381168103610eb05790565b35908115158203610eb057565b9190826080910312610eb0576040516080810181811067ffffffffffffffff821117610f1b576040526060612e8481839580358552612e6f602082016128f5565b60208601526040810135604086015201612e21565b910152565b90604051612e9681612b76565b60e060ff600783956001600160a01b0381541685526001600160a01b0360018201541660208601526001600160a01b03600282015416604086015260038101546060860152604051612eef81610fe98160048601612af5565b6080860152600581015460a0860152600681015460c08601520154161515910152565b916001600160a01b03604051927fa9059cbb000000000000000000000000000000000000000000000000000000005f521660045260245260205f60448180865af19060015f5114821615612f88575b60405215612f6c5750565b6001600160a01b0390635274afe760e01b5f521660045260245ffd5b906001811516611d2b57823b15153d15161690612f61565b600b545f5b818110612fb157505050565b82612fbb8261299b565b90549060031b1c14612fcf57600101612fa5565b91505f198101908111610f49576106da612feb612ff89261299b565b90549060031b1c9261299b565b9055600b548015613024575f190161301181600b6129cb565b8154905f199060031b1b19169055600b55565b634e487b7160e01b5f52603160045260245ffd5b8151919060418303613068576130619250602082015190606060408401519301515f1a906131af565b9192909190565b50505f9160029190565b600481101561311d5780613084575050565b600181036130b4577ff645eedf000000000000000000000000000000000000000000000000000000005f5260045ffd5b600281036130e857507ffce698f7000000000000000000000000000000000000000000000000000000005f5260045260245ffd5b6003146130f25750565b7fd78bce0c000000000000000000000000000000000000000000000000000000005f5260045260245ffd5b634e487b7160e01b5f52602160045260245ffd5b9290916001600160a01b039081604051947f23b872dd000000000000000000000000000000000000000000000000000000005f52166004521660245260445260205f60648180865af19060015f5114821615613197575b6040525f60605215612f6c5750565b906001811516611d2b57823b15153d15161690613188565b91907f7fffffffffffffffffffffffffffffff5d576e7357a4501ddfe92f46681b20a08411613226579160209360809260ff5f9560405194855216868401526040830152606082015282805260015afa15610ea5575f516001600160a01b0381161561321c57905f905f90565b505f906001905f90565b5050505f916003919056fea2646970667358221220b9512e40834d019d093ce4c620c38a3756d1a92650de3173108dbb749aa40b6364736f6c634300081a0033","linkReferences":{}},"methodIdentifiers":{"MAX_DELAY()":"4125ff90","MIN_DELAY()":"9f81aed7","afterAddLiquidity(address,(address,address,uint24,int24,address),(int24,int24,int256,bytes32),int256,int256,bytes)":"9f063efc","afterDonate(address,(address,address,uint24,int24,address),uint256,uint256,bytes)":"e1b4af69","afterInitialize(address,(address,address,uint24,int24,address),uint160,int24)":"6fe7e6eb","afterRemoveLiquidity(address,(address,address,uint24,int24,address),(int24,int24,int256,bytes32),int256,int256,bytes)":"6c2bbe7e","afterSwap(address,(address,address,uint24,int24,address),(bool,int256,uint160),int256,bytes)":"b47b2fb1","beforeAddLiquidity(address,(address,address,uint24,int24,address),(int24,int24,int256,bytes32),bytes)":"259982e5","beforeDonate(address,(address,address,uint24,int24,address),uint256,uint256,bytes)":"b6a8b0fa","beforeInitialize(address,(address,address,uint24,int24,address),uint160)":"dc98354e","beforeRemoveLiquidity(address,(address,address,uint24,int24,address),(int24,int24,int256,bytes32),bytes)":"21d0ee70","beforeSwap(address,(address,address,uint24,int24,address),(bool,int256,uint160),bytes)":"575e24b4","cancelIntent(bytes32)":"d55f960d","executeRelease(bytes32)":"c799147b","getIntent(bytes32)":"f13c46aa","getPendingIntents()":"dbc63ff0","getPendingReleases()":"6c688863","getRelease(bytes32)":"7f698e92","getReleasesReadyToExecute()":"69e7f655","intentNonce()":"c38c65a7","intents(bytes32)":"9021578a","oracle()":"7dc0d1d0","owner()":"8da5cb5b","pendingIntentCount()":"a7fff50f","pendingIntentIds(uint256)":"4f294e3e","pendingReleaseCount()":"83eeb373","pendingReleaseIds(uint256)":"ab80a15e","poolInitialized()":"b98ad255","poolKey()":"182148ef","poolManager()":"dc4c90d3","processedBatches(bytes32)":"88fcda39","releases(bytes32)":"f491a84c","setOracle(address)":"7adbf973","setTeeSigner(address)":"248190c4","settleAndQueue(((bytes32,bytes32,uint256)[],(bytes32,address,uint256,bool)[],(address,address,uint256,uint256,bytes,bytes32,bool)[],bytes32,uint256,bytes))":"2e03d63f","submitIntent(address,address,uint256,bytes,uint256)":"0f8d2b6b","swappedAmounts(bytes32)":"31341c66","teeSigner()":"43f855c3","transferOwnership(address)":"f2fde38b","unlockCallback(bytes)":"91dd7346"},"id":58}